:020000040800F2
:10000000B804002001010008C117000825160008E7
:10001000BD1700086D010008B51D000800000000B4
:100020000000000000000000000000002918000887
:10003000AD01000800000000FD1700082B180008A3
:100040001B0100081B0100081B0100081B01000820
:100050001B0100081B0100081B0100081B01000810
:100060001B0100081B0100081B0100081B01000800
:100070001B0100081B0100081B010008710100089A
:100080001B0100081B0100081B0100081B010008E0
:100090001B0100081B0100081B0100081B010008D0
:1000A0001B0100081B0100081B0100081B010008C0
:1000B0001B0100081B010008000000001B010008D4
:1000C0001B01000800000000000000001B010008E8
:1000D00000000000751D00081B0100080000000062
:1000E0001B0100081B0100081B010008DFF80CD0F1
:1000F00000F02AF800480047F11F0008B80400206B
:100100000648804706480047FEE7FEE7FEE7FEE7B1
:10011000FEE7FEE7FEE7FEE7FEE7FEE7CD18000894
:10012000ED000008D2B201E000F8012B491EFBD21D
:1001300070470022F6E710B513460A4604461946F2
:10014000FFF7F0FF204610BD064C074D06E0E068C3
:1001500040F0010394E8070098471034AC42F6D30E
:10016000FFF7C8FF3C2100085C21000800BFFEE744
:1001700010B5024800F090F810BD0000700000209B
:1001800030B590F840500124AC40C56B6C600468F9
:1001900063604468102C04D10468A2600468E160C4
:1001A00003E00468A1600468E26030BD7047014666
:1001B00000200A68126822F00E020B681A600A68B2
:1001C000126822F001020B681A6091F84030012297
:1001D0009A40CB6B5A60012281F8212000BF002297
:1001E00081F8202000BF704770B50446002594F8C0
:1001F0002100022803D00420A063012548E02068E4
:10020000006820F00E00216808602068006820F077
:100210000100216808601F492068884201D101203F
:1002200026E01C4914312068884201D110201FE0CB
:10023000184928312068884201D1801518E01549F5
:100240003C312068884201D1801411E011495031BD
:100250002068884202D14FF4803009E00D496431B2
:100260002068884202D14FF4801001E04FF0807086
:10027000084908394860012084F8210000BF0020A7
:1002800084F8200000BF606B10B12046616B884786
:10029000284670BD0800024070B50446E06B056852
:1002A0002068066894F84010042088402840002800
:1002B00046D006F00400002842D02068006800F014
:1002C000200028B92068006820F004002168086038
:1002D00057492068884201D1042027E0544914314D
:1002E0002068884201D1402020E05149283120680F
:1002F000884201D1001519E04D493C3120688842FF
:1003000002D14FF4804011E04949503120688842C1
:1003100002D14FF4802009E04549643120688842C9
:1003200002D14FF4800001E04FF08060404908396D
:100330004860E06A00287AD02046E16A884776E083
:1003400094F84010022088402840A0B306F0020034
:1003500088B32068006800F0200040B92068006879
:1003600020F00A0021680860012084F8210030494B
:100370002068884201D1022028E02D4914312068EC
:10038000884201D1202021E0294928312068884273
:1003900001D140151AE026493C312068884202D13B
:1003A0004FF4005012E0224950312068884203D1B6
:1003B0004FF400300AE017E01D496431206888429C
:1003C00002D14FF4001001E04FF0007018490839D5
:1003D000486000BF002084F8200000BFA06A30B34E
:1003E0002046A16A884722E094F8401008208840FF
:1003F0002840E0B106F00800C8B12068006820F08D
:100400000E002168086094F8401001208840E16BDC
:1004100048600120A06384F8210000BF002084F818
:10042000200000BF206B10B12046216B884770BDB3
:10043000080002400146002209B901207047184B0C
:100440000868C01A1423B0FBF3F080000864144855
:100450000838C863022081F821000868026843F662
:10046000F0708243D1E901031843CB6818430B694C
:1004700018434B6918438B691843CB6918430243EF
:100480000868026000208862C86208634863886365
:10049000012081F82100002081F8200000BFCDE775
:1004A000080002402DE9F04104460D4616461F465D
:1004B0004FF0000800BF94F82000012802D102206C
:1004C000BDE8F081012084F8200000BF94F82100ED
:1004D00001282CD1022084F821000020A06320688C
:1004E000006820F00100216808603B46324629463A
:1004F0002046FFF745FEE06A30B12068006840F012
:100500000E00216808600BE02068006820F00400FD
:10051000216808602068006840F00A0021680860CF
:100520002068006840F001002168086006E000BF14
:10053000002084F8200000BF4FF002084046BFE7CB
:100540002DE9F847034600240020002584460027B3
:10055000002266E14FF0010808FA02F4D1F80080A9
:1005600008EA0400A0427DD1DFF8C0A2D1F80480DF
:10057000A8EB0A09D0453AD014DCB8F1030F50D0EB
:1005800009DCB8F1000F31D0B8F1010F1CD0B8F17F
:10059000020F49D120E0B8F1110F18D0B8F1120FB5
:1005A00042D11EE0B9F5881F25D006DCB9F5803FA1
:1005B00020D0B9F5801F37D11AE0B9F5001F18D047
:1005C000B9F5041F30D117E0D1F80CC02DE0D1F8F7
:1005D0000C8008F1040C28E0D1F80C8008F1080C1C
:1005E00023E0D1F80C8008F10C0C1EE000BF00BF26
:1005F00000BF00BF00BF00BFD1F80880B8F1000FF6
:1006000002D14FF0040C0BE0D1F80880B8F1010FD3
:1006100003D14FF0080C1C6102E04FF0080C5C6144
:1006200003E04FF0000C00E000BF00BFFF2801D83E
:10063000984601E003F104084646FF2802D84FEA35
:10064000820803E0A2F108084FEA88084746D6F876
:1006500000804FF00F0909FA07F928EA09080CFA97
:1006600007F900E085E048EA0908C6F80080D1F8FB
:10067000048008F08058B8F1805F7AD100BFDFF8BD
:10068000B081D8F8188048F00108DFF8A491C9F8C3
:100690001880C846D8F8188008F00108CDF8008006
:1006A00000BF00BF4FEAB9384FEA920958F8295005
:1006B0004FEA82784FEA18794FF00F0808FA09F8E4
:1006C00025EA0805DFF86C81434502D14FF00008A8
:1006D0000FE0DFF86481434502D14FF0010808E0E4
:1006E000DFF85881434502D14FF0020801E04FF096
:1006F00003084FEA82794FEA197908FA09F848EABB
:100700000505DFF83C814FEA920948F82950D1F8F5
:10071000048008F48038B8F5803F0AD1DFF82481DE
:10072000D8F8008048EA0008DFF81891C9F800807E
:1007300009E0DFF81081D8F8008028EA0008DFF827
:100740000491C9F80080D1F8048008F40038B8F5A5
:10075000003F0FD1DFF8EC8008F10408D8F80080E2
:1007600048EA0008DFF8DC9009F10409C9F80080C4
:100770000EE055E0DFF8CC8008F10408D8F80080DE
:1007800028EA0008DFF8BC9009F10409C9F80080E4
:10079000D1F8048008F48018B8F5801F0ED1DFF876
:1007A000A48008F10808D8F8008048EA0008DFF8BB
:1007B000949009F10809C9F800800DE0DFF8848001
:1007C00008F10808D8F8008028EA0008DFF87490DB
:1007D00009F10809C9F80080D1F8048008F400186C
:1007E000B8F5001F0ED1DFF85C8008F10C08D8F8CE
:1007F000008048EA0008DFF84C9009F10C09C9F8BC
:1008000000800DE0DFF83C8008F10C08D8F800808B
:1008100028EA0008DFF82C9009F10C09C9F80080DB
:10082000521C102AFFF496AEBDE8F88700001110A4
:100830000010024000080140000C0140001001407F
:100840000800014000040140024693680B400BB1D0
:10085000012000E0002070470AB1016101E00B04B3
:1008600003617047014800687047000008000020DD
:1008700070B504460CB9012070BD4CF6CC4021681F
:10088000086045F2555021680860D4E900104860BE
:100890002168A0688860FFF7E5FF054606E0FFF7DE
:1008A000E1FF401B302801D90320E5E72068C0683C
:1008B0000028F4D14AF6AA20216808600020DBE76E
:1008C00001464AF6AA200A6810600020704700001E
:1008D00003480068034909780844014908607047E3
:1008E000080000201000002010B50848006840F003
:1008F000100006490860032000F0D0F8032000F043
:1009000007F800F02BF8002010BD00000020024086
:1009100070B504460E4800784FF47A71B1FBF0F0E0
:100920000C490968B1FBF0F5284600F044FC08B119
:10093000012070BD102C07D200222146501E00F06D
:100940006EF80548046001E00120F2E70020F0E7BE
:1009500010000020140000200C00002008B500BF8B
:100960002648806940F00100244988610846806972
:1009700000F00100009000BF00BF00BF0846C06942
:1009800040F08050C8610846C06900F08050009077
:1009900000BF00BF052000F081F8002211466FF073
:1009A0000B0000F03CF8002211466FF00A0000F046
:1009B00036F8002211466FF0090000F030F80022EE
:1009C0001146501F00F02BF800221146101F00F0B6
:1009D00026F800221146901E00F021F80022032183
:1009E000081F00F01CF800BF0549486820F0E060CF
:1009F00040F00070486000BF08BD000000100240D9
:100A00000000014000BF00F01F0201219140420997
:100A1000920002F1E022C2F8001100BF70472DE9F8
:100A2000F05F80460D461646002700F0CBFE0746D5
:100A300039462A46334601F00700C0F1070ABAF1E9
:100A4000040F02D94FF0040A01E0C0F1070AD146B1
:100A500000F1040ABAF1070F02D24FF0000A01E0D8
:100A6000A0F1030AD4464FF0010A0AFA09FAAAF1E2
:100A7000010A0AEA020A0AFA0CFA4FF0010B0BFA11
:100A80000CFBABF1010B0BEA030B4AEA0B0421460A
:100A9000404600F09FFEBDE8F09F000000BF00F060
:100AA0000702064B19684FF6FF031940044B0B432E
:100AB00043EA0221014B196000BF70470CED00E0D2
:100AC0000000FA0570B504460D460026624800682D
:100AD00000F00700A8420ED25F48006820F007002F
:100AE00028435D4908600846006800F00700A842F6
:100AF00001D0012070BD207800F00200022807D14B
:100B00005648406820F0F000A16808435349486007
:100B1000207800F0010000285DD06068012806D12F
:100B20004E48006800F4003090B90120E2E76068A8
:100B3000022806D14948006800F0007040B9012041
:100B4000D8E74648006800F0020008B90120D1E764
:100B50004248406820F00300616808433F4948600C
:100B6000FFF780FE06466068012810D108E0FFF715
:100B700079FE801B41F28831884201D90320B9E710
:100B80003648406800F00C000428F0D123E060688B
:100B9000022810D108E0FFF765FE801B41F2883182
:100BA000884201D90320A5E72C48406800F00C00DA
:100BB0000828F0D10FE008E0FFF754FE801B41F257
:100BC0008831884201D9032094E72448406800F026
:100BD0000C000028F0D12048006800F00700A8426F
:100BE0000ED91D48006820F0070028431A49086004
:100BF0000846006800F00700A84201D0012079E70C
:100C0000207800F00400042807D11448406820F43C
:100C1000E060E168084311494860207800F008006E
:100C2000082808D10D48406820F46050216940EA46
:100C3000C1000A49486000F03DF808494968C1F31D
:100C40000311074A515CC840064908600320FFF7BA
:100C50005FFE00204EE7000000200240001002402E
:100C6000242100081400002001480068704700009B
:100C70001400002000B5FFF7F7FF04494968C1F3ED
:100C80000221034A515CC84000BD00000010024030
:100C90003421000800B5FFF7E7FF04494968C1F3B4
:100CA000C221034A515CC84000BD00000010024050
:100CB00034210008F0B585B00FF26C0C9CE8E01010
:100CC00001A8A0E8E0101CA52D68009500210022D5
:100CD000002300240020194D696801F00C05F5B1CE
:100CE000042D02D0082D19D101E0154819E001ADFD
:100CF000C1F38346AC5D01F4803555B10F4D6D688D
:100D0000C5F340451DF805200D4D6543B5FBF2F3D5
:100D100002E00C4D04FB05F3184602E000BF0A4850
:100D200000BF00BF05B0F0BD0203040506070809B7
:100D30000A0B0C0D0E0F10100102000000100240F3
:100D4000001BB70000093D0000127A00F8B5044608
:100D50000025207800F00100002878D0F84840688D
:100D600000F00C0004280CD0F548406800F00C009E
:100D7000082811D1F248406800F48030B0F5803F77
:100D80000AD1EF48006800F4003000285FD06068A6
:100D900000285CD10120F8BD00BF6068B0F5803F3D
:100DA00006D1E748006840F48030E549086028E053
:100DB000606858B9E248006820F48030E049086073
:100DC0000846006820F4802008601AE06068B0F5EA
:100DD000A02F0BD1DA48006840F48020D849086081
:100DE0000846006840F4803008600AE0D448006893
:100DF00020F48030D24908600846006820F4802042
:100E0000086000BF606888B1FFF72CFD054606E06A
:100E1000FFF728FD401B642801D90320BBE7C84821
:100E2000006800F400300028F2D010E0FFF71AFD4F
:100E3000054606E0FFF716FD401B642801D9032094
:100E4000A9E7BF48006800F400300028F2D12078FC
:100E500000F00200022857D1B948406800F00C00A9
:100E600050B1B748406800F00C00082818D1B448C9
:100E7000406800F4803098B9B148006800F0020082
:100E800020B12069012801D0012084E7AC48006826
:100E900020F0F800616940EAC100A949086033E028
:100EA0002069E8B10120A7490860FFF7DBFC05468F
:100EB00006E0FFF7D7FC401B022801D903206AE7B0
:100EC0009F48006800F002000028F2D09C480068AB
:100ED00020F0F800616940EAC1009949086013E018
:100EE000002098490860FFF7BDFC054606E0FFF7C3
:100EF000B9FC401B022801D903204CE79048006848
:100F000000F002000028F2D1207800F00800082844
:100F10002DD1A069B8B101208B490860FFF7A2FC70
:100F2000054606E0FFF79EFC401B022801D903207E
:100F300031E78348406A00F002000028F2D0012027
:100F400000F05EFC13E000207F490860FFF78AFC98
:100F5000054606E0FFF786FC401B022801D9032066
:100F600019E77748406A00F002000028F2D12078A3
:100F700000F00400042873D100267148C06900F015
:100F8000805070B900BF6E48C06940F080506C4915
:100F9000C8610846C06900F08050009000BF00BFE3
:100FA00001266A48006800F48070B0B9674800689C
:100FB00040F4807065490860FFF754FC054606E080
:100FC000FFF750FC401B642801D90320E3E65F488B
:100FD000006800F480700028F2D000BFE0680128AB
:100FE00006D15748006A40F001005549086227E0E1
:100FF000E06858B95248006A20F001005049086280
:101000000846006A20F00400086219E0E06805283C
:101010000BD14B48006A40F0040049490862084679
:10102000006A40F0010008620AE04548006A20F0CA
:101030000100434908620846006A20F00400086283
:1010400000BFE068A0B1FFF70DFC054609E0FFF71F
:1010500009FC401B41F28831884202D903209AE6FC
:1010600022E03748006A00F002000028EFD012E0CA
:10107000FFF7F8FB054608E0FFF7F4FB401B41F2E1
:101080008831884201D9032085E62D48006A00F0A6
:1010900002000028F0D1012E05D12948C06920F0B6
:1010A00080502749C86100BFE069C8B32448406840
:1010B00000F00C00082860D0E069022848D1002028
:1010C00020490866FFF7CEFB054606E0FFF7CAFB9E
:1010D000401B022801D903205DE61948006800F092
:1010E00000700028F2D1206AB0F5803F07D1144883
:1010F000406820F40030A168084311494860D4E9F1
:10110000080108430E49496821F4741108430C4949
:10111000486001200B490866FFF7A4FB054607E07D
:101120002DE0FFF79FFB401B022801D9032032E688
:101130000348006800F000700028F2D01FE00000B3
:101140000010024000004242800442420070004011
:1011500000200C490866FFF785FB054606E0FFF70F
:1011600081FB401B022801D9032014E606480068D1
:1011700000F000700028F2D101E001200BE6002011
:1011800009E600000000424200100240042808D195
:101190004FF0E021096941F004014FF0E0221161B4
:1011A00007E04FF0E021096921F004014FF0E0224F
:1011B00011617047704770B504462546681EB0F14E
:1011C000807F01D301200FE0681E4FF0E0214861CD
:1011D0000F214FF0FF3000F0FDFA00204FF0E0212A
:1011E000886107200861002070BD10B5FFF7E2FF9D
:1011F00010BD70472DE9F047044620680568206857
:10120000C668206847694FF00008C14605F00F081E
:10121000B8F1000F0AD105F0200038B106F0200027
:1012200020B1204600F004FCBDE8F087B8F1000FC3
:101230006DD007F0010018B906F49070002866D050
:1012400005F0010030B106F4807018B1E06B40F099
:101250000100E06305F0040030B107F0010018B1AF
:10126000E06B40F00200E06305F0020030B107F0EF
:10127000010018B1E06B40F00400E06305F00800E5
:1012800030B107F0010018B1E06B40F00800E063F6
:10129000E06B68B305F0200028B106F0200010B123
:1012A000204600F0C5FB20684069C0F38019E06B60
:1012B00000F0080010B9B9F1000F22D0204600F06C
:1012C0008DFB2068406900F04000B0B120684069A3
:1012D00020F0400021684861606B50B11748616B95
:1012E0004863606BFEF780FF10B1606B416B88470D
:1012F0000CE02046FFF77DFF08E02046FFF779FF6E
:1013000004E02046FFF775FF0020E0638CE705F05E
:10131000800030B106F0800018B1204600F0C0FC1B
:1013200082E705F0400030B106F0400018B12046D9
:1013300000F064FB78E700BF76E70000251900089D
:1013400010B504460CB9012010BDA06900B100E041
:1013500000BF94F8390028B9002084F838002046EE
:1013600000F028F8242084F839002068C06820F4B0
:1013700000502168C860204600F0AEFB206800697C
:1013800020F49040216808612068406920F02A001C
:10139000216848612068C06840F400502168C86036
:1013A0000020E063202084F8390084F83A0000200F
:1013B000CAE7000010B586B0044626492068884276
:1013C00046D100BF2448806940F4804022498861AA
:1013D0000846806900F48040019000BF00BF4815B6
:1013E0000290022003900320059002A91B48FFF7FA
:1013F000A7F84FF48060029000200390049002A9A7
:101400001648FFF79DF81648164908600020486006
:101410000021144881608021C16000210161416187
:10142000202181610021C161FFF704F818B17C21FE
:101430000DA000F0C1FC00BF0A486063446200BF19
:10144000002211462520FFF7EAFA2520FFF7DAFAF5
:1014500006B010BD003801400010024000080140F5
:1014600058000240700000202E2E2F5372632F73FD
:10147000746D3332663178785F68616C5F6D73705C
:101480002E63000077B581B00446154694F83A0003
:10149000202850D1029800B115B9012004B070BDC8
:1014A00000BF94F83800012801D10220F6E701209E
:1014B00084F8380000BF0298A062A5850020E06390
:1014C000222084F83A001D48616B88621C48616BD9
:1014D000C8621C48616B08630020616B486302AE00
:1014E00032682368191D2B46606BFEF7DBFF00BFD7
:1014F00000200090206800680090206840680090FC
:1015000000BF00BF00BF002084F8380000BF206883
:10151000C06840F480702168C8602068406940F06D
:101520000100216848612068406940F0400021685E
:1015300048610020B2E70220B0E7000089190008E6
:10154000CF19000839190008704770472DE9F84392
:1015500004460D4616461F464FF0000994F8390020
:1015600020285CD105B116B90120BDE8F88300BF81
:1015700094F83800012801D10220F6E7012084F810
:10158000380000BF0020E063212084F83900FFF715
:1015900069F98146A684E6842BE0E08C401EE08455
:1015A000A068B0F5805F16D14B460022802120460E
:1015B000009700F0A9FB08B10320D6E7A846B8F8C9
:1015C0000000C0F3080021684860206908B9AD1C1C
:1015D0000FE06D1C0DE04B46002280212046009755
:1015E00000F092FB08B10320BFE715F8010B21685A
:1015F0004860E08C0028D0D14B4600224021204694
:10160000009700F081FB08B10320AEE7202084F8AA
:10161000390000BF002084F8380000BFA5E7022091
:10162000A3E7704700BFFEE708B500BF0A4840695E
:1016300040F00100084948610846406900F0010097
:10164000009000BF00BF002211460F20FFF7E7F90E
:101650000F20FFF7D7F908BD0010024000B585B094
:1016600000BF3148806940F020002F49886108465A
:10167000806900F02000009000BF00BF00BF084656
:10168000806940F0040088610846806900F0040029
:10169000009000BF00BF00BF0846806940F008000E
:1016A00088610846806900F00800009000BF00BF14
:1016B00000224FF612611D48FFF7CEF800224FF4CA
:1016C000CC511B48FFF7C8F87F2001900020029002
:1016D000039001A91648FEF733FF4FF61260019000
:1016E00001200290002003900220049001A90F48DD
:1016F000FEF726FF4FF4CC5001900120029000200D
:1017000003900220049001A90948FEF719FF4FF445
:10171000C070019000200290039001A90348FEF7D9
:101720000FFF05B000BD000000100240000C01409A
:101730000008014010B508480849086000204860CA
:101740004FF47A7105488160FFF792F818B1C8210B
:1017500003A000F031FB10BD003000402400002049
:101760002E2E2F5372632F6D61696E2E6300000061
:1017700010B50C480C4908604FF4E1304860002176
:1017800009488160C16001610C21416100218161D2
:10179000C161FFF7D5FD18B1DB2104A000F00CFBFF
:1017A00010BD000000380140300000202E2E2F53C5
:1017B00072632F6D61696E2E6300000000BFFEE74B
:1017C0007047000002480068C0F302207047000024
:1017D0000CED00E010B5002807DA0A07140E054AE0
:1017E00000F00F031B1FD45403E00A07130E024A34
:1017F000135410BD18ED00E000E400E07047000055
:1018000008B508490968C9084FF47A72B1FBF2F1CA
:101810004143009100BF00BF00994A1E0092002979
:10182000F9D108BD14000020704710B5FFF750F83B
:10183000FFF7DBFC10BD000010B590B0092006904A
:101840004FF4803007900020089001200A900C90FF
:1018500002200D90C1030E91C1040F9106A8FFF75D
:1018600075FA18B1A22115A000F0A6FA0F20019078
:1018700002200290002003904FF48060049000202A
:101880000590022101A8FFF71DF918B1B0210BA0A6
:1018900000F092FAFFF7E8F94FF47A71B0FBF1F437
:1018A0002046FFF788FC0420FFF770FC002203218C
:1018B000081FFFF7B4F810B010BD00002E2E2F53F4
:1018C00072632F6D61696E2E63000000114800681D
:1018D00040F001000F490860084640680E49084082
:1018E0000C494860084600680C49084009490860EE
:1018F0000846006820F4802008600846406820F40C
:10190000FE0048604FF41F008860C8030449086067
:1019100070470000001002400000FFF8FFFFF6FED5
:1019200008ED00E070B505466C6A0020E085E084B3
:101930002046FFF75EFC70BD70B506460025746A50
:1019400020684069C0F3C01594F83900212805D1FA
:1019500025B10020E084204600F060F8206840694E
:10196000C0F3801594F83A00222805D125B1002053
:10197000E085204600F032F8E06B40F01000E063B4
:101980002046FFF736FC70BD70B505466C6A2868C6
:10199000006800F02000B0B90020E0852068C06831
:1019A00020F480702168C8602068406920F0010040
:1019B000216848612068406920F040002168486142
:1019C000202084F83A002046FFF7BEFD70BD70B5B8
:1019D0000446656A2846FFF7B8FD70BD0168C9680E
:1019E00021F490710268D1600168496921F0010118
:1019F00002685161202180F83A10704710B5044602
:101A00002068C06820F040002168C860202084F869
:101A100039002046FFF705FE002010BD0168C968A7
:101A200021F0C0010268D160202180F83910704790
:101A300070B5044694F83A0022284AD1A068B0F55F
:101A4000805F13D1A56A206940B920684068C0F35F
:101A500008002880A06A801CA06219E02068406805
:101A6000C0B22880A06A401CA06211E0206938B989
:101A700020684068C1B2A26A501CA062117007E0E1
:101A80002068406800F07F01A26A501CA0621170BB
:101A9000E08D401E80B2E085C8B92068C06820F0A3
:101AA00020002168C8602068C06820F48070216828
:101AB000C8602068406920F001002168486120204A
:101AC00084F83A002046FFF73FFD002070BD00205B
:101AD000FCE70220FAE700002DE9F041044600256A
:101AE0002068006920F44050E168084321680861DB
:101AF0002169A06808436169084305432068C068FC
:101B000041F20C61884328432168C860206840691D
:101B100020F44070A1690843216848615F4920684A
:101B200088425CD1FFF7B6F800EBC00101EB001072
:101B300061688900B0FBF1F6FFF7ACF800EBC0017B
:101B400001EB001061688900B0FBF1F06421B0FB8B
:101B5000F1F000EBC00101EB0010A6EB8000322198
:101B600001EB00106421B0FBF1F000F0F006FFF78C
:101B700091F800EBC00101EB001061688900B0FB37
:101B8000F1F06421B0FBF1F006EB0016FFF782F8EC
:101B900000EBC00101EB001061688900B0FBF1F7B8
:101BA000FFF778F800EBC00101EB001061688900D5
:101BB000B0FBF1F06421B0FBF1F000EBC00101EBF0
:101BC0000010A7EB8000322101EB00106421B0FB74
:101BD000F1F000F00F003044216888605BE0FFF70F
:101BE00049F800EBC00101EB001061688900B0FB0F
:101BF000F1F6FFF73FF800EBC00101EB0010616860
:101C00008900B0FBF1F06421B0FBF1F000EBC00102
:101C100001EB0010A6EB8000322101EB00106421E3
:101C2000B0FBF1F000F0F006FFF724F800EBC00184
:101C300001EB001061688900B0FBF1F06421B0FB9A
:101C4000F1F006EB0016FFF715F800EBC00101EB11
:101C5000001061688900B0FBF1F7FFF70BF800EBAB
:101C6000C00101EB001061688900B0FBF1F0642154
:101C7000B0FBF1F000EBC00101EB0010A7EB80001E
:101C8000322101EB00106421B0FBF1F000F00F00F5
:101C9000304421688860BDE8F081000000380140D0
:101CA000014691F8390021282CD18868B0F5805F71
:101CB0000FD10A6A1088C0F308000B6858600869E1
:101CC00018B9086A801C086209E0086A401C0862AA
:101CD00005E00B6A581C086218780B685860C88CBD
:101CE000401E80B2C88458B90868C06820F08000DF
:101CF0000B68D8600868C06840F040000B68D86086
:101D0000002070470220FCE72DE9F04104460D4613
:101D100017469846069E21E0701CF8B12EB1FEF7DA
:101D2000A1FDA0EB0800B04218D92068C06820F4DB
:101D3000D0702168C8602068406920F001002168E7
:101D40004861202084F8390084F83A0000BF002060
:101D500084F8380000BF0320BDE8F08120680068E7
:101D60002840A84201D1012000E00020B842D3D091
:101D70000020F1E708B50D480068006800F0100089
:101D800010280FD101200A49087000BF00200090E0
:101D900006480068006800900448006840680090A9
:101DA00000BF00BF0148FFF725FA08BD3000002042
:101DB0000600002000BFFEE700BFFEE702E008C803
:101DC000121F08C1002AFAD170477047002001E0B5
:101DD00001C1121F002AFBD17047000010B5FF227D
:101DE00002210248FEF79EF910BD00000400002009
:101DF000024803490988018070470000180000204C
:101E00000400002010B573480078AA2808D0724852
:101E1000FEF7CDF902226F497048FFF733FBD6E099
:101E2000FFF7E6FF6B4840780E2872D2DFE800F03B
:101E30000716253443526162728191A0AFBE002023
:101E400067498870012210216648FEF705FD64236A
:101E5000032263496148FFF779FBB7E0002060493E
:101E60008870002210215F48FEF7F6FC64230322ED
:101E70005B495A48FFF76AFBA8E00420584988707C
:101E8000084659490968C0F803106423072201462F
:101E90005248FFF75BFB99E000205149887001220E
:101EA00002215048FEF7D8FC642303224C494B48DA
:101EB000FFF74CFB8AE0002049498870002202218C
:101EC0004848FEF7C9FC6423032245494348FFF70D
:101ED0003DFB7BE001204249887080214148FEF7AC
:101EE000B3FC3F49C870642304223C48FFF72EFB33
:101EF0006CE06BE001203A4988703A48083000688D
:101F000000F0EF00C870642304223448FFF71EFB82
:101F10005CE05AE000203249887001221102334807
:101F2000FEF79AFC642303222D492C48FFF70EFB91
:101F30004CE000202A49887000224FF480712B4821
:101F4000FEF78AFC6423032225492448FFF7FEFAA2
:101F50003CE0002022498870012280212348FEF7BE
:101F60007BFC642303221E491C48FFF7EFFA2DE097
:101F700000201B498870002280211C48FEF76CFC61
:101F80006423032216491548FFF7E0FA1EE00020FB
:101F900013498870012202211248FEF75DFC642378
:101FA00003220F490D48FFF7D1FA0FE000200C493A
:101FB0008870002202210B48FEF74EFC64230322A6
:101FC00007490648FFF7C2FA00E000BF00BFFFF76D
:101FD00005FF10BD0400002070000020300000202C
:101FE00018000020000C0140000000200008014003
:101FF00008B5FEF779FCFFF71FFCFFF72FFBFFF793
:1020000013FBFFF7B5FBFFF795FB022216491748B4
:10201000FFF738FA00BF00200090144800680068FD
:102020000090124800684068009000BF00BF0F4851
:102030000068C06840F010000C490968C8600122BF
:1020400002210B48FEF708FC0DE00A48FEF738FCB9
:1020500000F014F808480078012804D1002006494F
:102060000870FFF7CFFEF0E70400002030000020EA
:10207000000C0140240000200600002010B5402183
:102080002648FEF7E1FB044622464FF4005124485F
:10209000FEF7E2FB20212148FEF7D6FB044622464C
:1020A0004FF480511E48FEF7D7FB10211B48FEF766
:1020B000CBFB044622464FF400611948FEF7CCFBE7
:1020C00008211648FEF7C0FB044622464FF4806103
:1020D0001348FEF7C1FB04211048FEF7B5FB044688
:1020E00022464FF400710E48FEF7B6FB02210B4862
:1020F000FEF7AAFB044622464FF400610748FEF7AC
:10210000ABFB01210548FEF79FFB044622464FF436
:1021100080510248FEF7A0FB10BD000000080140FE
:10212000000C014000000000000000000102030458
:102130000607080900000000010203045C210008F2
:102140000000002018000000BC1D000874210008D9
:1021500018000020A0040000CC1D000800000000B2
:10216000000000000000000010000000010000005E
:0421700000A24A047B
:04000005080000ED02
:00000001FF
